{
  "contractName": "MyContract",
  "abi": [
    {
      "stateMutability": "payable",
      "type": "fallback",
      "payable": true
    },
    {
      "inputs": [
        {
          "internalType": "uint256",
          "name": "",
          "type": "uint256"
        }
      ],
      "name": "request",
      "outputs": [
        {
          "internalType": "uint256",
          "name": "id",
          "type": "uint256"
        },
        {
          "internalType": "string",
          "name": "date",
          "type": "string"
        },
        {
          "internalType": "string",
          "name": "userid",
          "type": "string"
        },
        {
          "internalType": "string",
          "name": "purpose",
          "type": "string"
        },
        {
          "internalType": "string",
          "name": "idPath",
          "type": "string"
        },
        {
          "internalType": "uint256",
          "name": "schemeid",
          "type": "uint256"
        }
      ],
      "stateMutability": "view",
      "type": "function",
      "constant": true
    },
    {
      "inputs": [
        {
          "internalType": "uint256",
          "name": "",
          "type": "uint256"
        }
      ],
      "name": "schemes",
      "outputs": [
        {
          "internalType": "uint256",
          "name": "id",
          "type": "uint256"
        },
        {
          "internalType": "string",
          "name": "title",
          "type": "string"
        },
        {
          "internalType": "string",
          "name": "totalAmount",
          "type": "string"
        },
        {
          "internalType": "string",
          "name": "totalCount",
          "type": "string"
        },
        {
          "internalType": "string",
          "name": "description",
          "type": "string"
        },
        {
          "internalType": "string",
          "name": "photoPath",
          "type": "string"
        },
        {
          "internalType": "string",
          "name": "status",
          "type": "string"
        },
        {
          "internalType": "uint256",
          "name": "catid",
          "type": "uint256"
        }
      ],
      "stateMutability": "view",
      "type": "function",
      "constant": true
    },
    {
      "inputs": [
        {
          "internalType": "uint256",
          "name": "_id",
          "type": "uint256"
        },
        {
          "internalType": "string",
          "name": "_title",
          "type": "string"
        },
        {
          "internalType": "string",
          "name": "_totalAmount",
          "type": "string"
        },
        {
          "internalType": "string",
          "name": "_totalCount",
          "type": "string"
        },
        {
          "internalType": "string",
          "name": "_description",
          "type": "string"
        },
        {
          "internalType": "string",
          "name": "_photoPath",
          "type": "string"
        },
        {
          "internalType": "string",
          "name": "_status",
          "type": "string"
        },
        {
          "internalType": "uint256",
          "name": "_catid",
          "type": "uint256"
        }
      ],
      "name": "addScheme",
      "outputs": [],
      "stateMutability": "nonpayable",
      "type": "function"
    },
    {
      "inputs": [],
      "name": "getSchemeCount",
      "outputs": [
        {
          "internalType": "uint256",
          "name": "",
          "type": "uint256"
        }
      ],
      "stateMutability": "view",
      "type": "function",
      "constant": true
    },
    {
      "inputs": [
        {
          "internalType": "uint256",
          "name": "_index",
          "type": "uint256"
        }
      ],
      "name": "getScheme",
      "outputs": [
        {
          "internalType": "uint256",
          "name": "",
          "type": "uint256"
        },
        {
          "internalType": "string",
          "name": "",
          "type": "string"
        },
        {
          "internalType": "string",
          "name": "",
          "type": "string"
        },
        {
          "internalType": "string",
          "name": "",
          "type": "string"
        },
        {
          "internalType": "string",
          "name": "",
          "type": "string"
        },
        {
          "internalType": "string",
          "name": "",
          "type": "string"
        },
        {
          "internalType": "string",
          "name": "",
          "type": "string"
        },
        {
          "internalType": "uint256",
          "name": "",
          "type": "uint256"
        }
      ],
      "stateMutability": "view",
      "type": "function",
      "constant": true
    },
    {
      "inputs": [
        {
          "internalType": "uint256",
          "name": "_id",
          "type": "uint256"
        },
        {
          "internalType": "string",
          "name": "_date",
          "type": "string"
        },
        {
          "internalType": "string",
          "name": "_userid",
          "type": "string"
        },
        {
          "internalType": "string",
          "name": "_purpose",
          "type": "string"
        },
        {
          "internalType": "string",
          "name": "_idPath",
          "type": "string"
        },
        {
          "internalType": "uint256",
          "name": "_schemeid",
          "type": "uint256"
        }
      ],
      "name": "addSchemeRequest",
      "outputs": [],
      "stateMutability": "nonpayable",
      "type": "function"
    },
    {
      "inputs": [],
      "name": "getSchemeRequestCount",
      "outputs": [
        {
          "internalType": "uint256",
          "name": "",
          "type": "uint256"
        }
      ],
      "stateMutability": "view",
      "type": "function",
      "constant": true
    },
    {
      "inputs": [
        {
          "internalType": "uint256",
          "name": "_index",
          "type": "uint256"
        }
      ],
      "name": "getSchemeRequest",
      "outputs": [
        {
          "internalType": "uint256",
          "name": "",
          "type": "uint256"
        },
        {
          "internalType": "string",
          "name": "",
          "type": "string"
        },
        {
          "internalType": "string",
          "name": "",
          "type": "string"
        },
        {
          "internalType": "string",
          "name": "",
          "type": "string"
        },
        {
          "internalType": "string",
          "name": "",
          "type": "string"
        },
        {
          "internalType": "uint256",
          "name": "",
          "type": "uint256"
        }
      ],
      "stateMutability": "view",
      "type": "function",
      "constant": true
    },
    {
      "inputs": [
        {
          "internalType": "address payable",
          "name": "_recipient",
          "type": "address"
        },
        {
          "internalType": "uint256",
          "name": "_amount",
          "type": "uint256"
        }
      ],
      "name": "transferEther",
      "outputs": [],
      "stateMutability": "nonpayable",
      "type": "function"
    }
  ],
  "bytecode": "0x608060405234801561001057600080fd5b50611b70806100206000396000f3fe60806040526004361061008a5760003560e01c806378651b421161005957806378651b421461014a578063bb52085e14610175578063bec45ca0146101b9578063d845a4b3146101e4578063e35bb0fc146102265761008b565b806305b1137b1461008d5780633847d73a146100b65780634ba65227146100f857806356ad7308146101215761008b565b5b005b34801561009957600080fd5b506100b460048036038101906100af91906113c7565b61026a565b005b3480156100c257600080fd5b506100dd60048036038101906100d89190611407565b6102f8565b6040516100ef969594939291906114dc565b60405180910390f35b34801561010457600080fd5b5061011f600480360381019061011a919061168e565b61060a565b005b34801561012d57600080fd5b50610148600480360381019061014391906117ec565b61073d565b005b34801561015657600080fd5b5061015f610827565b60405161016c91906118e9565b60405180910390f35b34801561018157600080fd5b5061019c60048036038101906101979190611407565b610833565b6040516101b0989796959493929190611904565b60405180910390f35b3480156101c557600080fd5b506101ce610bbb565b6040516101db91906118e9565b60405180910390f35b3480156101f057600080fd5b5061020b60048036038101906102069190611407565b610bc8565b60405161021d969594939291906114dc565b60405180910390f35b34801561023257600080fd5b5061024d60048036038101906102489190611407565b610e34565b604051610261989796959493929190611904565b60405180910390f35b804710156102ad576040517f08c379a00000000000000000000000000000000000000000000000000000000081526004016102a490611a1e565b60405180910390fd5b8173ffffffffffffffffffffffffffffffffffffffff166108fc829081150290604051600060405180830381858888f193505050501580156102f3573d6000803e3d6000fd5b505050565b600060608060608060006001805490508710610349576040517f08c379a000000000000000000000000000000000000000000000000000000000815260040161034090611a8a565b60405180910390fd5b60006001888154811061035f5761035e611aaa565b5b90600052602060002090600602016040518060c00160405290816000820154815260200160018201805461039290611b08565b80601f01602080910402602001604051908101604052809291908181526020018280546103be90611b08565b801561040b5780601f106103e05761010080835404028352916020019161040b565b820191906000526020600020905b8154815290600101906020018083116103ee57829003601f168201915b5050505050815260200160028201805461042490611b08565b80601f016020809104026020016040519081016040528092919081815260200182805461045090611b08565b801561049d5780601f106104725761010080835404028352916020019161049d565b820191906000526020600020905b81548152906001019060200180831161048057829003601f168201915b505050505081526020016003820180546104b690611b08565b80601f01602080910402602001604051908101604052809291908181526020018280546104e290611b08565b801561052f5780601f106105045761010080835404028352916020019161052f565b820191906000526020600020905b81548152906001019060200180831161051257829003601f168201915b5050505050815260200160048201805461054890611b08565b80601f016020809104026020016040519081016040528092919081815260200182805461057490611b08565b80156105c15780601f10610596576101008083540402835291602001916105c1565b820191906000526020600020905b8154815290600101906020018083116105a457829003601f168201915b505050505081526020016005820154815250509050806000015181602001518260400151836060015184608001518560a001519650965096509650965096505091939550919395565b60006040518061010001604052808a815260200189815260200188815260200187815260200186815260200185815260200184815260200183815250908060018154018082558091505060019003906000526020600020906008020160009091909190915060008201518160000155602082015181600101908051906020019061069592919061127c565b5060408201518160020190805190602001906106b292919061127c565b5060608201518160030190805190602001906106cf92919061127c565b5060808201518160040190805190602001906106ec92919061127c565b5060a082015181600501908051906020019061070992919061127c565b5060c082015181600601908051906020019061072692919061127c565b5060e0820151816007015550505050505050505050565b60016040518060c001604052808881526020018781526020018681526020018581526020018481526020018381525090806001815401808255809150506001900390600052602060002090600602016000909190919091506000820151816000015560208201518160010190805190602001906107bb92919061127c565b5060408201518160020190805190602001906107d892919061127c565b5060608201518160030190805190602001906107f592919061127c565b50608082015181600401908051906020019061081292919061127c565b5060a082015181600501555050505050505050565b60008080549050905090565b6000818154811061084357600080fd5b906000526020600020906008020160009150905080600001549080600101805461086c90611b08565b80601f016020809104026020016040519081016040528092919081815260200182805461089890611b08565b80156108e55780601f106108ba576101008083540402835291602001916108e5565b820191906000526020600020905b8154815290600101906020018083116108c857829003601f168201915b5050505050908060020180546108fa90611b08565b80601f016020809104026020016040519081016040528092919081815260200182805461092690611b08565b80156109735780601f1061094857610100808354040283529160200191610973565b820191906000526020600020905b81548152906001019060200180831161095657829003601f168201915b50505050509080600301805461098890611b08565b80601f01602080910402602001604051908101604052809291908181526020018280546109b490611b08565b8015610a015780601f106109d657610100808354040283529160200191610a01565b820191906000526020600020905b8154815290600101906020018083116109e457829003601f168201915b505050505090806004018054610a1690611b08565b80601f0160208091040260200160405190810160405280929190818152602001828054610a4290611b08565b8015610a8f5780601f10610a6457610100808354040283529160200191610a8f565b820191906000526020600020905b815481529060010190602001808311610a7257829003601f168201915b505050505090806005018054610aa490611b08565b80601f0160208091040260200160405190810160405280929190818152602001828054610ad090611b08565b8015610b1d5780601f10610af257610100808354040283529160200191610b1d565b820191906000526020600020905b815481529060010190602001808311610b0057829003601f168201915b505050505090806006018054610b3290611b08565b80601f0160208091040260200160405190810160405280929190818152602001828054610b5e90611b08565b8015610bab5780601f10610b8057610100808354040283529160200191610bab565b820191906000526020600020905b815481529060010190602001808311610b8e57829003601f168201915b5050505050908060070154905088565b6000600180549050905090565b60018181548110610bd857600080fd5b9060005260206000209060060201600091509050806000015490806001018054610c0190611b08565b80601f0160208091040260200160405190810160405280929190818152602001828054610c2d90611b08565b8015610c7a5780601f10610c4f57610100808354040283529160200191610c7a565b820191906000526020600020905b815481529060010190602001808311610c5d57829003601f168201915b505050505090806002018054610c8f90611b08565b80601f0160208091040260200160405190810160405280929190818152602001828054610cbb90611b08565b8015610d085780601f10610cdd57610100808354040283529160200191610d08565b820191906000526020600020905b815481529060010190602001808311610ceb57829003601f168201915b505050505090806003018054610d1d90611b08565b80601f0160208091040260200160405190810160405280929190818152602001828054610d4990611b08565b8015610d965780601f10610d6b57610100808354040283529160200191610d96565b820191906000526020600020905b815481529060010190602001808311610d7957829003601f168201915b505050505090806004018054610dab90611b08565b80601f0160208091040260200160405190810160405280929190818152602001828054610dd790611b08565b8015610e245780601f10610df957610100808354040283529160200191610e24565b820191906000526020600020905b815481529060010190602001808311610e0757829003601f168201915b5050505050908060050154905086565b6000606080606080606080600080805490508910610e87576040517f08c379a0000000000000000000000000000000000000000000000000000000008152600401610e7e90611a8a565b60405180910390fd5b6000808a81548110610e9c57610e9b611aaa565b5b90600052602060002090600802016040518061010001604052908160008201548152602001600182018054610ed090611b08565b80601f0160208091040260200160405190810160405280929190818152602001828054610efc90611b08565b8015610f495780601f10610f1e57610100808354040283529160200191610f49565b820191906000526020600020905b815481529060010190602001808311610f2c57829003601f168201915b50505050508152602001600282018054610f6290611b08565b80601f0160208091040260200160405190810160405280929190818152602001828054610f8e90611b08565b8015610fdb5780601f10610fb057610100808354040283529160200191610fdb565b820191906000526020600020905b815481529060010190602001808311610fbe57829003601f168201915b50505050508152602001600382018054610ff490611b08565b80601f016020809104026020016040519081016040528092919081815260200182805461102090611b08565b801561106d5780601f106110425761010080835404028352916020019161106d565b820191906000526020600020905b81548152906001019060200180831161105057829003601f168201915b5050505050815260200160048201805461108690611b08565b80601f01602080910402602001604051908101604052809291908181526020018280546110b290611b08565b80156110ff5780601f106110d4576101008083540402835291602001916110ff565b820191906000526020600020905b8154815290600101906020018083116110e257829003601f168201915b5050505050815260200160058201805461111890611b08565b80601f016020809104026020016040519081016040528092919081815260200182805461114490611b08565b80156111915780601f1061116657610100808354040283529160200191611191565b820191906000526020600020905b81548152906001019060200180831161117457829003601f168201915b505050505081526020016006820180546111aa90611b08565b80601f01602080910402602001604051908101604052809291908181526020018280546111d690611b08565b80156112235780601f106111f857610100808354040283529160200191611223565b820191906000526020600020905b81548152906001019060200180831161120657829003601f168201915b505050505081526020016007820154815250509050806000015181602001518260400151836060015184608001518560a001518660c001518760e001519850985098509850985098509850985050919395975091939597565b82805461128890611b08565b90600052602060002090601f0160209004810192826112aa57600085556112f1565b82601f106112c357805160ff19168380011785556112f1565b828001600101855582156112f1579182015b828111156112f05782518255916020019190600101906112d5565b5b5090506112fe9190611302565b5090565b5b8082111561131b576000816000905550600101611303565b5090565b6000604051905090565b600080fd5b600080fd5b600073ffffffffffffffffffffffffffffffffffffffff82169050919050565b600061135e82611333565b9050919050565b61136e81611353565b811461137957600080fd5b50565b60008135905061138b81611365565b92915050565b6000819050919050565b6113a481611391565b81146113af57600080fd5b50565b6000813590506113c18161139b565b92915050565b600080604083850312156113de576113dd611329565b5b60006113ec8582860161137c565b92505060206113fd858286016113b2565b9150509250929050565b60006020828403121561141d5761141c611329565b5b600061142b848285016113b2565b91505092915050565b61143d81611391565b82525050565b600081519050919050565b600082825260208201905092915050565b60005b8381101561147d578082015181840152602081019050611462565b8381111561148c576000848401525b50505050565b6000601f19601f8301169050919050565b60006114ae82611443565b6114b8818561144e565b93506114c881856020860161145f565b6114d181611492565b840191505092915050565b600060c0820190506114f16000830189611434565b818103602083015261150381886114a3565b9050818103604083015261151781876114a3565b9050818103606083015261152b81866114a3565b9050818103608083015261153f81856114a3565b905061154e60a0830184611434565b979650505050505050565b600080fd5b600080fd5b7f4e487b7100000000000000000000000000000000000000000000000000000000600052604160045260246000fd5b61159b82611492565b810181811067ffffffffffffffff821117156115ba576115b9611563565b5b80604052505050565b60006115cd61131f565b90506115d98282611592565b919050565b600067ffffffffffffffff8211156115f9576115f8611563565b5b61160282611492565b9050602081019050919050565b82818337600083830152505050565b600061163161162c846115de565b6115c3565b90508281526020810184848401111561164d5761164c61155e565b5b61165884828561160f565b509392505050565b600082601f83011261167557611674611559565b5b813561168584826020860161161e565b91505092915050565b600080600080600080600080610100898b0312156116af576116ae611329565b5b60006116bd8b828c016113b2565b985050602089013567ffffffffffffffff8111156116de576116dd61132e565b5b6116ea8b828c01611660565b975050604089013567ffffffffffffffff81111561170b5761170a61132e565b5b6117178b828c01611660565b965050606089013567ffffffffffffffff8111156117385761173761132e565b5b6117448b828c01611660565b955050608089013567ffffffffffffffff8111156117655761176461132e565b5b6117718b828c01611660565b94505060a089013567ffffffffffffffff8111156117925761179161132e565b5b61179e8b828c01611660565b93505060c089013567ffffffffffffffff8111156117bf576117be61132e565b5b6117cb8b828c01611660565b92505060e06117dc8b828c016113b2565b9150509295985092959890939650565b60008060008060008060c0878903121561180957611808611329565b5b600061181789828a016113b2565b965050602087013567ffffffffffffffff8111156118385761183761132e565b5b61184489828a01611660565b955050604087013567ffffffffffffffff8111156118655761186461132e565b5b61187189828a01611660565b945050606087013567ffffffffffffffff8111156118925761189161132e565b5b61189e89828a01611660565b935050608087013567ffffffffffffffff8111156118bf576118be61132e565b5b6118cb89828a01611660565b92505060a06118dc89828a016113b2565b9150509295509295509295565b60006020820190506118fe6000830184611434565b92915050565b60006101008201905061191a600083018b611434565b818103602083015261192c818a6114a3565b9050818103604083015261194081896114a3565b9050818103606083015261195481886114a3565b9050818103608083015261196881876114a3565b905081810360a083015261197c81866114a3565b905081810360c083015261199081856114a3565b905061199f60e0830184611434565b9998505050505050505050565b7f496e73756666696369656e742062616c616e636520696e2074686520636f6e7460008201527f7261637400000000000000000000000000000000000000000000000000000000602082015250565b6000611a0860248361144e565b9150611a13826119ac565b604082019050919050565b60006020820190508181036000830152611a37816119fb565b9050919050565b7f496e646578206f7574206f6620626f756e647300000000000000000000000000600082015250565b6000611a7460138361144e565b9150611a7f82611a3e565b602082019050919050565b60006020820190508181036000830152611aa381611a67565b9050919050565b7f4e487b7100000000000000000000000000000000000000000000000000000000600052603260045260246000fd5b7f4e487b7100000000000000000000000000000000000000000000000000000000600052602260045260246000fd5b60006002820490506001821680611b2057607f821691505b60208210811415611b3457611b33611ad9565b5b5091905056fea2646970667358221220437c5dc4b21c59211344e416beca7b08d77cd8bc3dae8b0c735c6481e841f64864736f6c634300080c0033",
  "immutableReferences": {},
  "source": "pragma solidity ^0.8.12;\r\n\r\ncontract MyContract {\r\n    struct Scheme {\r\n        uint id;\r\n        string title;\r\n        string totalAmount;\r\n        string totalCount;\r\n        string description;\r\n        string photoPath;\r\n        string status;\r\n        uint catid;\r\n    }\r\n\r\n    Scheme[] public schemes;\r\n\r\n    function addScheme(uint _id, string memory _title, string memory _totalAmount, string memory _totalCount, string memory _description, string memory _photoPath, string memory _status, uint _catid) public {\r\n        schemes.push(Scheme(_id, _title, _totalAmount, _totalCount, _description, _photoPath, _status, _catid));\r\n    }\r\n\r\n    function getSchemeCount() public view returns (uint) {\r\n        return schemes.length;\r\n    }\r\n\r\n    function getScheme(uint _index) public view returns (uint, string memory, string memory, string memory, string memory, string memory, string memory, uint) {\r\n        require(_index < schemes.length, \"Index out of bounds\");\r\n        Scheme memory scheme = schemes[_index];\r\n        return (scheme.id, scheme.title, scheme.totalAmount, scheme.totalCount, scheme.description, scheme.photoPath, scheme.status, scheme.catid);\r\n    }\r\n\r\n    // SchemeRequest Starts Here\r\n    struct SchemeRequest {\r\n        uint id;\r\n        string date;\r\n        string userid;\r\n        string purpose;\r\n        string idPath;\r\n        uint schemeid;\r\n    }\r\n\r\n    SchemeRequest[] public request;\r\n\r\n    function addSchemeRequest(uint _id, string memory _date, string memory _userid, string memory _purpose, string memory _idPath, uint _schemeid) public {\r\n        request.push(SchemeRequest(_id, _date, _userid, _purpose, _idPath, _schemeid));\r\n    }\r\n\r\n    function getSchemeRequestCount() public view returns (uint) {\r\n        return request.length;\r\n    }\r\n\r\n    function getSchemeRequest(uint _index) public view returns (uint, string memory, string memory, string memory, string memory, uint) {\r\n        require(_index < request.length, \"Index out of bounds\");\r\n        SchemeRequest memory req = request[_index];\r\n        return (req.id, req.date, req.userid, req.purpose, req.idPath, req.schemeid);\r\n    }\r\n    // SchemeRequest Ends Here\r\n\r\n\r\n    function transferEther(address payable _recipient, uint _amount) external {\r\n        require(address(this).balance >= _amount, \"Insufficient balance in the contract\");\r\n        _recipient.transfer(_amount);\r\n    }\r\n    //transfer ends here\r\n\r\n    fallback() external payable {\r\n        // Optional: Perform any additional logic here\r\n    }\r\n}\r\n",
  "sourcePath": "E:\\FundEr\\myapp\\static\\funder\\contracts\\MyContract.sol",
  "compiler": {
    "name": "solc",
    "version": "0.8.12+commit.f00d7308.Emscripten.clang"
  },
  "schemaVersion": "3.4.16",
  "updatedAt": "2024-02-18T16:50:40.571Z",
  "networkType": "ethereum",
  "devdoc": {
    "kind": "dev",
    "methods": {},
    "version": 1
  },
  "userdoc": {
    "kind": "user",
    "methods": {},
    "version": 1
  }
}